:100000000C945D000C9485000C9485000C94850084
:100010000C9485000C9485000C9485000C9485004C
:100020000C9485000C9485000C9485000C9485003C
:100030000C9485000C9485000C9485000C9485002C
:100040000C9467020C9485000C9485000C94850038
:100050000C9485000C9485000C9485000C9485000C
:100060000C9485000C94850000000008000201003B
:100070000003040700000000000000000000000072
:10008000250028002B0000000000240027002A0083
:10009000040404040404040402020202020203032E
:1000A0000303030301020408102040800102040836
:1000B00010200102040810205E0311241FBECFEFA0
:1000C000D8E0DEBFCDBF12E0A0E0B1E0ECE4F7E0A5
:1000D00002C005900D92A034B107D9F722E0A0E448
:1000E000B2E001C01D92A136B207E1F710E0CDE504
:1000F000D0E004C02197FE010E949E03CC35D107B9
:10010000C9F70E94B1020C94A4030C94000090E083
:10011000FC01EC55FF4F249180579F4FFC018491C7
:10012000882399F090E0880F991FFC01EA57FF4F50
:10013000A591B491FC01E458FF4F859194918FB73C
:10014000F894EC91E22BEC938FBF0895AF92BF929D
:10015000CF92DF92EF92FF920F931F93CF93DF9393
:100160006C017B018B01040F151FEB015E01AE18C2
:10017000BF08C017D10759F06991D601ED91FC91E4
:100180000190F081E02DC6010995892B79F7C50111
:10019000DF91CF911F910F91FF90EF90DF90CF9063
:1001A000BF90AF90089590E0FC01E859FF4F249173
:1001B000FC01EC55FF4F3491FC01E057FF4FE491F7
:1001C000EE23C9F0222339F0233001F1A8F42130C5
:1001D00019F1223029F1F0E0EE0FFF1FE458FF4F34
:1001E000A591B4918FB7F894EC91611126C0309528
:1001F0003E233C938FBF08952730A9F02830C9F0E3
:10020000243049F7809180008F7D03C08091800069
:100210008F7780938000DFCF84B58F7784BDDBCF6D
:1002200084B58F7DFBCF8091B0008F778093B00035
:10023000D2CF8091B0008F7DF9CF3E2BDACF0895D9
:1002400090E080E00895CF93DF93EC0160E08E8131
:100250000E94D30061E08E810E94D30060E08E8115
:100260000E94D3008BE891E00197F1F7DF91CF91E5
:100270000895CF92DF92EF92FF920F931F93CF9347
:10028000DF936C017C0187E0E80EF11CD0E0C0E058
:10029000062F10E0B8010C2E02C0759567950A94E0
:1002A000E2F76170F70181917F010E94D3002196EE
:1002B000C430D10579F7C601DF91CF911F910F911D
:1002C000FF90EF90DF90CF900C942301CF92DF92BC
:1002D000EF92FF920F931F93CF93DF93EC01F62ED3
:1002E000642F8C810E94D3008D818F3F19F060E0D4
:1002F0000E94D3000F2D10E08F8584FF25C06E0172
:1003000087E0C80ED11CF12CE12CB8010E2C02C0E4
:10031000759567950A94E2F76170F60181916F0116
:100320000E94D300FFEFEF1AFF0A88E0E816F104FD
:1003300061F7CE01DF91CF911F910F91FF90EF9068
:10034000DF90CF900C942301B80184E075956795F8
:100350008A95E1F7CE010E9439016F2DCE01DF9120
:10036000CF911F910F91FF90EF90DF90CF900C9461
:10037000390140E0682F89E492E00C946601CF9344
:10038000DF93823029F4909158029860909358023C
:1003900080935C0210925D0280E480935E0280E1B3
:1003A00080935F0280E58093600280914D020E94FD
:1003B000870080914E028F3F11F00E94870080914C
:1003C0004F020E948700C9E4D2E09E0129543240C6
:1003D0008091580284FD0AC084E090E0219628179D
:1003E00039073CF48E810E948700EFCF88E090E0CF
:1003F000F5CF8BE39DE00197F1F760E080914D022E
:100400000E94D30060E080914F020E94D30080914F
:100410004E028F3F19F060E00E94D3008091580295
:1004200084FD39C063E089E492E00E943901CBE4A5
:10043000D6E4CE010197F1F763E089E492E00E94EF
:1004400039012197F1F763E089E492E00E943901D4
:1004500083E592E00197F1F762E089E492E00E947F
:1004600039018091580280620E94B90184E0809332
:1004700059028CE00E94B90181E00E94B9018BE32E
:100480009FE10197F1F782E080935A0286E0DF91C5
:10049000CF910C94B90180620E94B9018BE496E47B
:1004A0000197F1F78091580280620E94B90183E5BB
:1004B00092E00197F1F78091580280620E94B901A1
:1004C000D0CF41E00E94660181E090E008951F9244
:1004D0000F920FB60F9211242F933F938F939F93F8
:1004E000AF93BF938091450290914602A09147023D
:1004F000B09148023091440223E0230F2D3758F584
:100500000196A11DB11D2093440280934502909352
:100510004602A0934702B093480280914002909116
:100520004102A0914202B09143020196A11DB11D6A
:100530008093400290934102A0934202B093430201
:10054000BF91AF919F918F913F912F910F900FBECF
:100550000F901F90189526E8230F0296A11DB11D3C
:10056000D2CFCF93DF93CDB7DEB7A1970FB6F89474
:10057000DEBF0FBECDBF789484B5826084BD84B5E4
:10058000816084BD85B5826085BD85B5816085BD8E
:1005900080916E00816080936E0010928100809146
:1005A00081008260809381008091810081608093CE
:1005B0008100809180008160809380008091B100F3
:1005C00084608093B1008091B00081608093B0001E
:1005D00080917A00846080937A0080917A008260B2
:1005E00080937A0080917A00816080937A00809174
:1005F0007A00806880937A001092C10082E00E94A5
:10060000BF0143E351E06CE071E089E492E00E94B5
:10061000A60088EEC82E83E0D82EE12CF12C9AE0BB
:10062000492E512C612C712C20E0A22E20E0B22EFC
:10063000E0915C02E23008F03FC0E150F0E0E75B9F
:10064000FD4F848980680E94B9012FB7F8946091AA
:1006500045027091460280914702909148022FBF57
:10066000A70196010E947C0319A28E010F5D1F4F06
:10067000CA01B901A30192010E947C03605DF801E7
:1006800062938F01211531054105510589F7309796
:1006900061F001900020E9F73197AF01401B510B49
:1006A000B80189E492E00E94A600A114B10409F403
:1006B000BFCF0E940000BCCFE1E0C0CFE9E4F2E090
:1006C0001382128284E091E0918380838CE08483A2
:1006D0008FEF85838BE0868385E0878384E0808746
:1006E00083E0818782E082871386148615861686CA
:1006F000178681E00C94BF01A1E21A2EAA1BBB1B36
:10070000FD010DC0AA1FBB1FEE1FFF1FA217B307DD
:10071000E407F50720F0A21BB30BE40BF50B661FF3
:10072000771F881F991F1A9469F7609570958095B7
:1007300090959B01AC01BD01CF010895EE0FFF1F05
:0C0740000590F491E02D0994F894FFCF8F
:10074C00000000006102A60020011F01414848483A
:10075C004848482121212121212121212121212108
:10076C00212121212121212121212121212121216D
:10077C00212121212121212121212121212121215D
:10078C00212121212121212121212121212121214D
:10079C00212121212121212121212121212121213D
:1007AC00212121212121212121212121212121212D
:1007BC00212121212121212121212121212121211D
:1007CC00212121212121212121212121212121210D
:1007DC0021212121212121212121212121212121FD
:1007EC0021212121212121212121212121212121ED
:1007FC0021212121212121212121212121212121DD
:10080C0021212121212121212121212121212121CC
:10081C0021212121212121212121212121212121BC
:10082C0021212121212121212121212121212121AC
:10083C00212121212121212121212121212121219C
:10084C00212121212121212121212121212121218C
:10085C00212121212121212121212121212121217C
:10086C00212121212121212121212121212121216C
:10087C00212121212121212121212121212121007D
:00000001FF
